{
  "contractName": "IPFSStorage",
  "abi": [
    {
      "anonymous": false,
      "inputs": [
        {
          "indexed": true,
          "internalType": "uint256",
          "name": "key",
          "type": "uint256"
        },
        {
          "indexed": false,
          "internalType": "bytes32",
          "name": "digest",
          "type": "bytes32"
        },
        {
          "indexed": false,
          "internalType": "uint8",
          "name": "hashFunction",
          "type": "uint8"
        },
        {
          "indexed": false,
          "internalType": "uint8",
          "name": "size",
          "type": "uint8"
        }
      ],
      "name": "EntrySet",
      "type": "event"
    },
    {
      "inputs": [
        {
          "internalType": "uint256",
          "name": "_nftIndex",
          "type": "uint256"
        },
        {
          "internalType": "bytes32",
          "name": "_digest",
          "type": "bytes32"
        },
        {
          "internalType": "uint8",
          "name": "_hashFunction",
          "type": "uint8"
        },
        {
          "internalType": "uint8",
          "name": "_size",
          "type": "uint8"
        }
      ],
      "name": "setEntry",
      "outputs": [],
      "stateMutability": "nonpayable",
      "type": "function"
    },
    {
      "inputs": [
        {
          "internalType": "uint256",
          "name": "_nftIndex",
          "type": "uint256"
        }
      ],
      "name": "getEntry",
      "outputs": [
        {
          "internalType": "bytes32",
          "name": "digest",
          "type": "bytes32"
        },
        {
          "internalType": "uint8",
          "name": "hashfunction",
          "type": "uint8"
        },
        {
          "internalType": "uint8",
          "name": "size",
          "type": "uint8"
        }
      ],
      "stateMutability": "view",
      "type": "function",
      "constant": true
    },
    {
      "inputs": [],
      "name": "numberOfEntries",
      "outputs": [
        {
          "internalType": "uint256",
          "name": "numOfEntries",
          "type": "uint256"
        }
      ],
      "stateMutability": "view",
      "type": "function",
      "constant": true
    }
  ],
  "bytecode": "0x608060405234801561001057600080fd5b5061041f806100206000396000f3fe608060405234801561001057600080fd5b50600436106100415760003560e01c8063825f787214610046578063adc01ccb14610064578063bae78d7b14610080575b600080fd5b61004e6100b2565b60405161005b91906102f0565b60405180910390f35b61007e60048036038101906100799190610229565b6100bc565b005b61009a60048036038101906100959190610200565b610170565b6040516100a9939291906102b9565b60405180910390f35b6000600154905090565b60008060008681526020019081526020016000209050838160000181905550828160010160006101000a81548160ff021916908360ff160217905550818160010160016101000a81548160ff021916908360ff160217905550600160008154809291906101289061032c565b9190505550847fc1cab85c064df2adb16b3a984f9bbe2f4c9d9ef7d8f13a5c311834d0990795d3858585604051610161939291906102b9565b60405180910390a25050505050565b600080600080600080868152602001908152602001600020905080600001548160010160009054906101000a900460ff168260010160019054906101000a900460ff16935093509350509193909250565b6000813590506101d0816103a4565b92915050565b6000813590506101e5816103bb565b92915050565b6000813590506101fa816103d2565b92915050565b60006020828403121561021257600080fd5b6000610220848285016101d6565b91505092915050565b6000806000806080858703121561023f57600080fd5b600061024d878288016101d6565b945050602061025e878288016101c1565b935050604061026f878288016101eb565b9250506060610280878288016101eb565b91505092959194509250565b6102958161030b565b82525050565b6102a481610315565b82525050565b6102b38161031f565b82525050565b60006060820190506102ce600083018661028c565b6102db60208301856102aa565b6102e860408301846102aa565b949350505050565b6000602082019050610305600083018461029b565b92915050565b6000819050919050565b6000819050919050565b600060ff82169050919050565b600061033782610315565b91507fffffffffffffffffffffffffffffffffffffffffffffffffffffffffffffffff82141561036a57610369610375565b5b600182019050919050565b7f4e487b7100000000000000000000000000000000000000000000000000000000600052601160045260246000fd5b6103ad8161030b565b81146103b857600080fd5b50565b6103c481610315565b81146103cf57600080fd5b50565b6103db8161031f565b81146103e657600080fd5b5056fea2646970667358221220c7cdf7dfb2d23a73814d3451cc29ca06016d41baef83a39ea59e5d90403720f364736f6c63430008000033",
  "immutableReferences": {},
  "source": "// SPDX-License-Identifier: MIT\r\npragma solidity ^0.8.0; // ^0.4.18;\r\n\r\n/**\r\n * @title IPFSStorage\r\n * @author originally written by Forest Fang (@saurfang) - modified by Chris Ball\r\n * original project: https://github.com/saurfang/ipfs-multihash-on-solidity\r\n * @dev Stores IPFS (multihash) hash by index (for NFTs)\r\n * A multihash entry is in the format of: \r\n * <varint hash function code><varint digest size in bytes><hash function output>\r\n * See https://github.com/multiformats/multihash\r\n *\r\n * Currently IPFS hash is 34 bytes long with first two segments represented as a single byte (uint8)\r\n * The digest is 32 bytes long and can be stored using bytes32 efficiently.\r\n */\r\ncontract IPFSStorage {\r\n  /** @dev matches IPFS Multihash layout mentioned in comments at top */\r\n  struct Multihash {\r\n    bytes32 digest;\r\n    uint8 hashFunction;\r\n    uint8 size;\r\n  }\r\n\r\n  mapping (uint => Multihash) private entries;  /** @dev nftIndex => IPFS address hash */\r\n  uint private numberOfMultihashes;             /** @dev total number of IPFS address hash entries */\r\n\r\n  event EntrySet (uint indexed key, bytes32 digest, uint8 hashFunction, uint8 size);  \r\n  /** \r\n    * @dev for this implmentation which stores a mapping by nftIndex, we're not allowing entries\r\n    * to be deleted from the system because NFTs will never be deleted, only added to. \r\n  event EntryDeleted (uint indexed key);\r\n  */\r\n\r\n  /**\r\n   * @dev associate a multihash entry with an NFT index. The index can be used across contracts\r\n   * @param _nftIndex index is used as a key across contracts\r\n   * @param _digest hash digest produced by hashing content using hash function\r\n   * @param _hashFunction hashFunction code for the hash function used\r\n   * @param _size length of the digest \r\n   */\r\n  function setEntry(uint _nftIndex, bytes32 _digest, uint8 _hashFunction, uint8 _size) public {\r\n    /** \r\n      * @dev IMP: the incoming IPFS address could actually point to the same address as another \r\n      * _nftIndex is pointing to. This may or may not be wanted in the final version. Also, I\r\n      * wonder if it's possible to have an 'index' of sorts for doing quick searches on the \r\n      * _digest as a tool to quickly accomplish this? That may need to be offchain (js, etc). \r\n    */\r\n    (Multihash storage entry) = (entries[_nftIndex]);\r\n    entry.digest = _digest;\r\n    entry.hashFunction = _hashFunction;\r\n    entry.size = _size;\r\n    numberOfMultihashes++;    \r\n    emit EntrySet(_nftIndex, _digest, _hashFunction, _size);\r\n  }\r\n\r\n  /**\r\n   * @dev retrieve multihash entry associated with an nftIndex\r\n   * @param _nftIndex used as key\r\n   */\r\n  function getEntry(uint _nftIndex) public view returns(bytes32 digest, uint8 hashfunction, uint8 size) {\r\n    (Multihash storage entry) = (entries[_nftIndex]);\r\n    return (entry.digest, entry.hashFunction, entry.size);\r\n  }\r\n\r\n  /**\r\n    * @dev returns the current number of IPFS hash entries in the system\r\n  */\r\n  function numberOfEntries() public view returns(uint numOfEntries) {\r\n    return numberOfMultihashes;\r\n  }\r\n\r\n\r\n  /** \r\n    * @dev for this implmentation, which stores a mapping by _nftIndex, we're not allowing entries\r\n    * to be deleted because the _nfts will not be deleted, only added to.\r\n    * \r\n    * @dev deassociate any multihash entry with the sender address\r\n  function clearEntry(uint _nftIndex) public {\r\n    require(entries[_nftIndex].digest != 0);\r\n    delete entries[_nftIndex];\r\n    emit EntryDeleted(_nftIndex);\r\n  }\r\n  */\r\n}",
  "sourcePath": "C:/devroot/Solidity/learning/IPFSMultihash-on-Solidity/contracts/IPFSStorage.sol",
  "compiler": {
    "name": "solc",
    "version": "0.8.0+commit.c7dfd78e.Emscripten.clang"
  },
  "schemaVersion": "3.3.4",
  "updatedAt": "2021-05-26T13:25:53.719Z",
  "networkType": "ethereum",
  "devdoc": {
    "author": "originally written by Forest Fang (@saurfang) - modified by Chris Ball original project: https://github.com/saurfang/ipfs-multihash-on-solidity",
    "details": "Stores IPFS (multihash) hash by index (for NFTs) A multihash entry is in the format of:  <varint hash function code><varint digest size in bytes><hash function output> See https://github.com/multiformats/multihash Currently IPFS hash is 34 bytes long with first two segments represented as a single byte (uint8) The digest is 32 bytes long and can be stored using bytes32 efficiently.",
    "events": {
      "EntrySet(uint256,bytes32,uint8,uint8)": {
        "details": "total number of IPFS address hash entries "
      }
    },
    "kind": "dev",
    "methods": {
      "getEntry(uint256)": {
        "details": "retrieve multihash entry associated with an nftIndex",
        "params": {
          "_nftIndex": "used as key"
        }
      },
      "numberOfEntries()": {
        "details": "returns the current number of IPFS hash entries in the system"
      },
      "setEntry(uint256,bytes32,uint8,uint8)": {
        "details": "associate a multihash entry with an NFT index. The index can be used across contracts",
        "params": {
          "_digest": "hash digest produced by hashing content using hash function",
          "_hashFunction": "hashFunction code for the hash function used",
          "_nftIndex": "index is used as a key across contracts",
          "_size": "length of the digest "
        }
      }
    },
    "stateVariables": {
      "numberOfMultihashes": {
        "details": "nftIndex => IPFS address hash "
      }
    },
    "title": "IPFSStorage",
    "version": 1
  },
  "userdoc": {
    "kind": "user",
    "methods": {},
    "version": 1
  }
}